{
    "_format": "hh-sol-artifact-1",
    "contractName": "SpectrumX",
    "sourceName": "contracts/SpectrumX.sol",
    "abi": [
        {
            "inputs": [],
            "stateMutability": "nonpayable",
            "type": "constructor"
        },
        {
            "anonymous": false,
            "inputs": [
                {
                    "indexed": true,
                    "internalType": "address",
                    "name": "owner",
                    "type": "address"
                },
                {
                    "indexed": true,
                    "internalType": "address",
                    "name": "approved",
                    "type": "address"
                },
                {
                    "indexed": true,
                    "internalType": "uint256",
                    "name": "tokenId",
                    "type": "uint256"
                }
            ],
            "name": "Approval",
            "type": "event"
        },
        {
            "anonymous": false,
            "inputs": [
                {
                    "indexed": true,
                    "internalType": "address",
                    "name": "owner",
                    "type": "address"
                },
                {
                    "indexed": true,
                    "internalType": "address",
                    "name": "operator",
                    "type": "address"
                },
                {
                    "indexed": false,
                    "internalType": "bool",
                    "name": "approved",
                    "type": "bool"
                }
            ],
            "name": "ApprovalForAll",
            "type": "event"
        },
        {
            "anonymous": false,
            "inputs": [
                {
                    "indexed": false,
                    "internalType": "address",
                    "name": "sender",
                    "type": "address"
                },
                {
                    "indexed": false,
                    "internalType": "uint256",
                    "name": "tokenId",
                    "type": "uint256"
                }
            ],
            "name": "NewSpexctrumXNFTMinted",
            "type": "event"
        },
        {
            "anonymous": false,
            "inputs": [
                {
                    "indexed": true,
                    "internalType": "address",
                    "name": "previousOwner",
                    "type": "address"
                },
                {
                    "indexed": true,
                    "internalType": "address",
                    "name": "newOwner",
                    "type": "address"
                }
            ],
            "name": "OwnershipTransferred",
            "type": "event"
        },
        {
            "anonymous": false,
            "inputs": [
                {
                    "indexed": true,
                    "internalType": "address",
                    "name": "from",
                    "type": "address"
                },
                {
                    "indexed": true,
                    "internalType": "address",
                    "name": "to",
                    "type": "address"
                },
                {
                    "indexed": true,
                    "internalType": "uint256",
                    "name": "tokenId",
                    "type": "uint256"
                }
            ],
            "name": "Transfer",
            "type": "event"
        },
        {
            "inputs": [],
            "name": "MAX_PER_USER",
            "outputs": [
                {
                    "internalType": "uint8",
                    "name": "",
                    "type": "uint8"
                }
            ],
            "stateMutability": "view",
            "type": "function"
        },
        {
            "inputs": [],
            "name": "MAX_TOKENS",
            "outputs": [
                {
                    "internalType": "uint16",
                    "name": "",
                    "type": "uint16"
                }
            ],
            "stateMutability": "view",
            "type": "function"
        },
        {
            "inputs": [],
            "name": "NAME",
            "outputs": [
                {
                    "internalType": "string",
                    "name": "",
                    "type": "string"
                }
            ],
            "stateMutability": "view",
            "type": "function"
        },
        {
            "inputs": [],
            "name": "SYMBOL",
            "outputs": [
                {
                    "internalType": "string",
                    "name": "",
                    "type": "string"
                }
            ],
            "stateMutability": "view",
            "type": "function"
        },
        {
            "inputs": [],
            "name": "TOKEN_PRICE",
            "outputs": [
                {
                    "internalType": "uint256",
                    "name": "",
                    "type": "uint256"
                }
            ],
            "stateMutability": "view",
            "type": "function"
        },
        {
            "inputs": [
                {
                    "internalType": "address",
                    "name": "to",
                    "type": "address"
                },
                {
                    "internalType": "uint256",
                    "name": "tokenId",
                    "type": "uint256"
                }
            ],
            "name": "approve",
            "outputs": [],
            "stateMutability": "nonpayable",
            "type": "function"
        },
        {
            "inputs": [
                {
                    "internalType": "address",
                    "name": "owner",
                    "type": "address"
                }
            ],
            "name": "balanceOf",
            "outputs": [
                {
                    "internalType": "uint256",
                    "name": "",
                    "type": "uint256"
                }
            ],
            "stateMutability": "view",
            "type": "function"
        },
        {
            "inputs": [],
            "name": "baseTokenURI",
            "outputs": [
                {
                    "internalType": "string",
                    "name": "",
                    "type": "string"
                }
            ],
            "stateMutability": "view",
            "type": "function"
        },
        {
            "inputs": [],
            "name": "getAllTokens",
            "outputs": [
                {
                    "components": [
                        {
                            "internalType": "uint256",
                            "name": "id",
                            "type": "uint256"
                        },
                        {
                            "internalType": "string",
                            "name": "uri",
                            "type": "string"
                        }
                    ],
                    "internalType": "struct SpectrumX.RenderToken[]",
                    "name": "",
                    "type": "tuple[]"
                }
            ],
            "stateMutability": "view",
            "type": "function"
        },
        {
            "inputs": [
                {
                    "internalType": "uint256",
                    "name": "tokenId",
                    "type": "uint256"
                }
            ],
            "name": "getApproved",
            "outputs": [
                {
                    "internalType": "address",
                    "name": "",
                    "type": "address"
                }
            ],
            "stateMutability": "view",
            "type": "function"
        },
        {
            "inputs": [],
            "name": "getTokensMinted",
            "outputs": [
                {
                    "internalType": "uint256",
                    "name": "",
                    "type": "uint256"
                }
            ],
            "stateMutability": "view",
            "type": "function"
        },
        {
            "inputs": [
                {
                    "internalType": "address",
                    "name": "owner",
                    "type": "address"
                },
                {
                    "internalType": "address",
                    "name": "operator",
                    "type": "address"
                }
            ],
            "name": "isApprovedForAll",
            "outputs": [
                {
                    "internalType": "bool",
                    "name": "",
                    "type": "bool"
                }
            ],
            "stateMutability": "view",
            "type": "function"
        },
        {
            "inputs": [],
            "name": "name",
            "outputs": [
                {
                    "internalType": "string",
                    "name": "",
                    "type": "string"
                }
            ],
            "stateMutability": "view",
            "type": "function"
        },
        {
            "inputs": [],
            "name": "newMint",
            "outputs": [],
            "stateMutability": "nonpayable",
            "type": "function"
        },
        {
            "inputs": [],
            "name": "owner",
            "outputs": [
                {
                    "internalType": "address",
                    "name": "",
                    "type": "address"
                }
            ],
            "stateMutability": "view",
            "type": "function"
        },
        {
            "inputs": [
                {
                    "internalType": "uint256",
                    "name": "tokenId",
                    "type": "uint256"
                }
            ],
            "name": "ownerOf",
            "outputs": [
                {
                    "internalType": "address",
                    "name": "",
                    "type": "address"
                }
            ],
            "stateMutability": "view",
            "type": "function"
        },
        {
            "inputs": [],
            "name": "renounceOwnership",
            "outputs": [],
            "stateMutability": "nonpayable",
            "type": "function"
        },
        {
            "inputs": [
                {
                    "internalType": "address",
                    "name": "from",
                    "type": "address"
                },
                {
                    "internalType": "address",
                    "name": "to",
                    "type": "address"
                },
                {
                    "internalType": "uint256",
                    "name": "tokenId",
                    "type": "uint256"
                }
            ],
            "name": "safeTransferFrom",
            "outputs": [],
            "stateMutability": "nonpayable",
            "type": "function"
        },
        {
            "inputs": [
                {
                    "internalType": "address",
                    "name": "from",
                    "type": "address"
                },
                {
                    "internalType": "address",
                    "name": "to",
                    "type": "address"
                },
                {
                    "internalType": "uint256",
                    "name": "tokenId",
                    "type": "uint256"
                },
                {
                    "internalType": "bytes",
                    "name": "_data",
                    "type": "bytes"
                }
            ],
            "name": "safeTransferFrom",
            "outputs": [],
            "stateMutability": "nonpayable",
            "type": "function"
        },
        {
            "inputs": [
                {
                    "internalType": "address",
                    "name": "operator",
                    "type": "address"
                },
                {
                    "internalType": "bool",
                    "name": "approved",
                    "type": "bool"
                }
            ],
            "name": "setApprovalForAll",
            "outputs": [],
            "stateMutability": "nonpayable",
            "type": "function"
        },
        {
            "inputs": [
                {
                    "internalType": "string",
                    "name": "_baseTokenURI",
                    "type": "string"
                }
            ],
            "name": "setBaseURI",
            "outputs": [],
            "stateMutability": "nonpayable",
            "type": "function"
        },
        {
            "inputs": [
                {
                    "internalType": "bytes4",
                    "name": "interfaceId",
                    "type": "bytes4"
                }
            ],
            "name": "supportsInterface",
            "outputs": [
                {
                    "internalType": "bool",
                    "name": "",
                    "type": "bool"
                }
            ],
            "stateMutability": "view",
            "type": "function"
        },
        {
            "inputs": [],
            "name": "symbol",
            "outputs": [
                {
                    "internalType": "string",
                    "name": "",
                    "type": "string"
                }
            ],
            "stateMutability": "view",
            "type": "function"
        },
        {
            "inputs": [
                {
                    "internalType": "uint256",
                    "name": "_tokenId",
                    "type": "uint256"
                }
            ],
            "name": "tokenURI",
            "outputs": [
                {
                    "internalType": "string",
                    "name": "",
                    "type": "string"
                }
            ],
            "stateMutability": "view",
            "type": "function"
        },
        {
            "inputs": [
                {
                    "internalType": "address",
                    "name": "from",
                    "type": "address"
                },
                {
                    "internalType": "address",
                    "name": "to",
                    "type": "address"
                },
                {
                    "internalType": "uint256",
                    "name": "tokenId",
                    "type": "uint256"
                }
            ],
            "name": "transferFrom",
            "outputs": [],
            "stateMutability": "nonpayable",
            "type": "function"
        },
        {
            "inputs": [
                {
                    "internalType": "address",
                    "name": "newOwner",
                    "type": "address"
                }
            ],
            "name": "transferOwnership",
            "outputs": [],
            "stateMutability": "nonpayable",
            "type": "function"
        },
        {
            "inputs": [],
            "name": "withdrawAll",
            "outputs": [],
            "stateMutability": "payable",
            "type": "function"
        }
    ],
    "bytecode": "0x60806040526040518060400160405280600781526020017f697066733a2f2f0000000000000000000000000000000000000000000000000081525060099080519060200190620000519291906200052a565b5060405180610160016040528061012a81526020016200458761012a9139600a9080519060200190620000869291906200052a565b503480156200009457600080fd5b506040518060400160405280600981526020017f537065637472756d5800000000000000000000000000000000000000000000008152506040518060400160405280600481526020017f53504543000000000000000000000000000000000000000000000000000000008152508160009080519060200190620001199291906200052a565b508060019080519060200190620001329291906200052a565b5050506200015562000149620002b560201b60201c565b620002bd60201b60201c565b620001f860098054620001689062000708565b80601f0160208091040260200160405190810160405280929190818152602001828054620001969062000708565b8015620001e75780601f10620001bb57610100808354040283529160200191620001e7565b820191906000526020600020905b815481529060010190602001808311620001c957829003601f168201915b50505050506200038360201b60201c565b620002af6040518060400160405280601381526020017f54657374696e672074657374206465706c6f79000000000000000000000000008152506040518060400160405280600981526020017f537065637472756d5800000000000000000000000000000000000000000000008152506040518060400160405280600481526020017f53504543000000000000000000000000000000000000000000000000000000008152506200042e60201b620014e51760201c565b620007a7565b600033905090565b6000600760009054906101000a900473ffffffffffffffffffffffffffffffffffffffff16905081600760006101000a81548173ffffffffffffffffffffffffffffffffffffffff021916908373ffffffffffffffffffffffffffffffffffffffff1602179055508173ffffffffffffffffffffffffffffffffffffffff168173ffffffffffffffffffffffffffffffffffffffff167f8be0079c531659141344cd1fd0a4f28419497f9722a3daafe3b4186f6b6457e060405160405180910390a35050565b62000393620002b560201b60201c565b73ffffffffffffffffffffffffffffffffffffffff16620003b9620004d760201b60201c565b73ffffffffffffffffffffffffffffffffffffffff161462000412576040517f08c379a0000000000000000000000000000000000000000000000000000000008152600401620004099062000694565b60405180910390fd5b80600990805190602001906200042a9291906200052a565b5050565b620004d2838383604051602401620004499392919062000642565b6040516020818303038152906040527f2ced7cef000000000000000000000000000000000000000000000000000000007bffffffffffffffffffffffffffffffffffffffffffffffffffffffff19166020820180517bffffffffffffffffffffffffffffffffffffffffffffffffffffffff83818316178352505050506200050160201b60201c565b505050565b6000600760009054906101000a900473ffffffffffffffffffffffffffffffffffffffff16905090565b60008151905060006a636f6e736f6c652e6c6f679050602083016000808483855afa5050505050565b828054620005389062000708565b90600052602060002090601f0160209004810192826200055c5760008555620005a8565b82601f106200057757805160ff1916838001178555620005a8565b82800160010185558215620005a8579182015b82811115620005a75782518255916020019190600101906200058a565b5b509050620005b79190620005bb565b5090565b5b80821115620005d6576000816000905550600101620005bc565b5090565b6000620005e782620006b6565b620005f38185620006c1565b935062000605818560208601620006d2565b62000610816200076d565b840191505092915050565b60006200062a602083620006c1565b915062000637826200077e565b602082019050919050565b600060608201905081810360008301526200065e8186620005da565b90508181036020830152620006748185620005da565b905081810360408301526200068a8184620005da565b9050949350505050565b60006020820190508181036000830152620006af816200061b565b9050919050565b600081519050919050565b600082825260208201905092915050565b60005b83811015620006f2578082015181840152602081019050620006d5565b8381111562000702576000848401525b50505050565b600060028204905060018216806200072157607f821691505b602082108114156200073857620007376200073e565b5b50919050565b7f4e487b7100000000000000000000000000000000000000000000000000000000600052602260045260246000fd5b6000601f19601f8301169050919050565b7f4f776e61626c653a2063616c6c6572206973206e6f7420746865206f776e6572600082015250565b613dd080620007b76000396000f3fe60806040526004361061019c5760003560e01c80638da5cb5b116100ec578063d2d8cb671161008a578063e985e9c511610064578063e985e9c514610583578063f2fde38b146105c0578063f47c84c5146105e9578063f76f8d78146106145761019c565b8063d2d8cb6714610502578063d547cfb71461052d578063d69f6bae146105585761019c565b8063a3f4df7e116100c6578063a3f4df7e14610446578063b88d4fde14610471578063c7ba75481461049a578063c87b56dd146104c55761019c565b80638da5cb5b146103c757806395d89b41146103f2578063a22cb4651461041d5761019c565b80633f99497b116101595780636352211e116101335780636352211e1461032c57806370a0823114610369578063715018a6146103a6578063853828b6146103bd5761019c565b80633f99497b146102c357806342842e0e146102da57806355f804b3146103035761019c565b806301ffc9a7146101a157806306fdde03146101de578063081812fc14610209578063095ea7b31461024657806323b872dd1461026f5780632a5c792a14610298575b600080fd5b3480156101ad57600080fd5b506101c860048036038101906101c39190612812565b61063f565b6040516101d59190612f56565b60405180910390f35b3480156101ea57600080fd5b506101f3610721565b6040516102009190612f71565b60405180910390f35b34801561021557600080fd5b50610230600480360381019061022b91906128a5565b6107b3565b60405161023d9190612ea4565b60405180910390f35b34801561025257600080fd5b5061026d600480360381019061026891906127d6565b610838565b005b34801561027b57600080fd5b50610296600480360381019061029191906126d0565b610950565b005b3480156102a457600080fd5b506102ad6109b0565b6040516102ba9190612f34565b60405180910390f35b3480156102cf57600080fd5b506102d8610aec565b005b3480156102e657600080fd5b5061030160048036038101906102fc91906126d0565b610cd1565b005b34801561030f57600080fd5b5061032a60048036038101906103259190612864565b610cf1565b005b34801561033857600080fd5b50610353600480360381019061034e91906128a5565b610d87565b6040516103609190612ea4565b60405180910390f35b34801561037557600080fd5b50610390600480360381019061038b919061266b565b610e39565b60405161039d9190613238565b60405180910390f35b3480156103b257600080fd5b506103bb610ef1565b005b6103c5610f79565b005b3480156103d357600080fd5b506103dc611035565b6040516103e99190612ea4565b60405180910390f35b3480156103fe57600080fd5b5061040761105f565b6040516104149190612f71565b60405180910390f35b34801561042957600080fd5b50610444600480360381019061043f919061279a565b6110f1565b005b34801561045257600080fd5b5061045b611107565b6040516104689190612f71565b60405180910390f35b34801561047d57600080fd5b506104986004803603810190610493919061271f565b611140565b005b3480156104a657600080fd5b506104af6111a2565b6040516104bc9190613253565b60405180910390f35b3480156104d157600080fd5b506104ec60048036038101906104e791906128a5565b6111a7565b6040516104f99190612f71565b60405180910390f35b34801561050e57600080fd5b50610517611264565b6040516105249190613238565b60405180910390f35b34801561053957600080fd5b5061054261126f565b60405161054f9190612f71565b60405180910390f35b34801561056457600080fd5b5061056d6112fd565b60405161057a9190613238565b60405180910390f35b34801561058f57600080fd5b506105aa60048036038101906105a59190612694565b61131a565b6040516105b79190612f56565b60405180910390f35b3480156105cc57600080fd5b506105e760048036038101906105e2919061266b565b6113ae565b005b3480156105f557600080fd5b506105fe6114a6565b60405161060b919061321d565b60405180910390f35b34801561062057600080fd5b506106296114ac565b6040516106369190612f71565b60405180910390f35b60007f80ac58cd000000000000000000000000000000000000000000000000000000007bffffffffffffffffffffffffffffffffffffffffffffffffffffffff1916827bffffffffffffffffffffffffffffffffffffffffffffffffffffffff1916148061070a57507f5b5e139f000000000000000000000000000000000000000000000000000000007bffffffffffffffffffffffffffffffffffffffffffffffffffffffff1916827bffffffffffffffffffffffffffffffffffffffffffffffffffffffff1916145b8061071a575061071982611584565b5b9050919050565b6060600080546107309061357d565b80601f016020809104026020016040519081016040528092919081815260200182805461075c9061357d565b80156107a95780601f1061077e576101008083540402835291602001916107a9565b820191906000526020600020905b81548152906001019060200180831161078c57829003601f168201915b5050505050905090565b60006107be826115ee565b6107fd576040517f08c379a00000000000000000000000000000000000000000000000000000000081526004016107f49061317d565b60405180910390fd5b6004600083815260200190815260200160002060009054906101000a900473ffffffffffffffffffffffffffffffffffffffff169050919050565b600061084382610d87565b90508073ffffffffffffffffffffffffffffffffffffffff168373ffffffffffffffffffffffffffffffffffffffff1614156108b4576040517f08c379a00000000000000000000000000000000000000000000000000000000081526004016108ab906131bd565b60405180910390fd5b8073ffffffffffffffffffffffffffffffffffffffff166108d361165a565b73ffffffffffffffffffffffffffffffffffffffff1614806109025750610901816108fc61165a565b61131a565b5b610941576040517f08c379a0000000000000000000000000000000000000000000000000000000008152600401610938906130fd565b60405180910390fd5b61094b8383611662565b505050565b61096161095b61165a565b8261171b565b6109a0576040517f08c379a0000000000000000000000000000000000000000000000000000000008152600401610997906131dd565b60405180910390fd5b6109ab8383836117f9565b505050565b606060006109be6008611a60565b90506000808267ffffffffffffffff811115610a03577f4e487b7100000000000000000000000000000000000000000000000000000000600052604160045260246000fd5b604051908082528060200260200182016040528015610a3c57816020015b610a29612475565b815260200190600190039081610a215790505b50905060005b8151811015610ae257610a54836115ee565b15610ac1576000610a64846111a7565b9050604051806040016040528085815260200182815250838581518110610ab4577f4e487b7100000000000000000000000000000000000000000000000000000000600052603260045260246000fd5b6020026020010181905250505b8280610acc906135e0565b9350508080610ada906135e0565b915050610a42565b5080935050505090565b60006001610afa6008611a60565b610b049190613397565b90506109c461ffff16811115610b4f576040517f08c379a0000000000000000000000000000000000000000000000000000000008152600401610b46906131fd565b60405180910390fd5b6000600a604051602001610b639190612e28565b60405160208183030381529060405290506000610ba6610b8283611a6e565b604051602001610b929190612e77565b604051602081830303815290604052611a6e565b9050600081604051602001610bbb9190612e55565b6040516020818303038152906040529050610c0a6040518060400160405280600681526020017f0a2d2d2d2d2d0000000000000000000000000000000000000000000000000000815250611c2c565b610c1381611c2c565b610c516040518060400160405280600681526020017f2d2d2d2d2d0a0000000000000000000000000000000000000000000000000000815250611c2c565b610c5b3385611cc5565b610c658482611ce3565b610c6f6008611d0f565b610c92604051806060016040528060258152602001613d36602591398533611d25565b7f7bcea9e1a6aaedf5feb6a3165cf1317c4c13df5e910396ed6ac3b3ddafce97313385604051610cc3929190612f0b565b60405180910390a150505050565b610cec83838360405180602001604052806000815250611140565b505050565b610cf961165a565b73ffffffffffffffffffffffffffffffffffffffff16610d17611035565b73ffffffffffffffffffffffffffffffffffffffff1614610d6d576040517f08c379a0000000000000000000000000000000000000000000000000000000008152600401610d649061319d565b60405180910390fd5b8060099080519060200190610d8392919061248f565b5050565b6000806002600084815260200190815260200160002060009054906101000a900473ffffffffffffffffffffffffffffffffffffffff169050600073ffffffffffffffffffffffffffffffffffffffff168173ffffffffffffffffffffffffffffffffffffffff161415610e30576040517f08c379a0000000000000000000000000000000000000000000000000000000008152600401610e279061313d565b60405180910390fd5b80915050919050565b60008073ffffffffffffffffffffffffffffffffffffffff168273ffffffffffffffffffffffffffffffffffffffff161415610eaa576040517f08c379a0000000000000000000000000000000000000000000000000000000008152600401610ea19061311d565b60405180910390fd5b600360008373ffffffffffffffffffffffffffffffffffffffff1673ffffffffffffffffffffffffffffffffffffffff168152602001908152602001600020549050919050565b610ef961165a565b73ffffffffffffffffffffffffffffffffffffffff16610f17611035565b73ffffffffffffffffffffffffffffffffffffffff1614610f6d576040517f08c379a0000000000000000000000000000000000000000000000000000000008152600401610f649061319d565b60405180910390fd5b610f776000611dc4565b565b610f8161165a565b73ffffffffffffffffffffffffffffffffffffffff16610f9f611035565b73ffffffffffffffffffffffffffffffffffffffff1614610ff5576040517f08c379a0000000000000000000000000000000000000000000000000000000008152600401610fec9061319d565b60405180910390fd5b3373ffffffffffffffffffffffffffffffffffffffff166108fc479081150290604051600060405180830381858888f1935050505061103357600080fd5b565b6000600760009054906101000a900473ffffffffffffffffffffffffffffffffffffffff16905090565b60606001805461106e9061357d565b80601f016020809104026020016040519081016040528092919081815260200182805461109a9061357d565b80156110e75780601f106110bc576101008083540402835291602001916110e7565b820191906000526020600020905b8154815290600101906020018083116110ca57829003601f168201915b5050505050905090565b6111036110fc61165a565b8383611e8a565b5050565b6040518060400160405280600981526020017f537065637472756d58000000000000000000000000000000000000000000000081525081565b61115161114b61165a565b8361171b565b611190576040517f08c379a0000000000000000000000000000000000000000000000000000000008152600401611187906131dd565b60405180910390fd5b61119c84848484611ff7565b50505050565b601481565b60606111b2826115ee565b6111bb57600080fd5b6000600b600084815260200190815260200160002080546111db9061357d565b80601f01602080910402602001604051908101604052809291908181526020018280546112079061357d565b80156112545780601f1061122957610100808354040283529160200191611254565b820191906000526020600020905b81548152906001019060200180831161123757829003601f168201915b5050505050905080915050919050565b66f8b0a10e47000081565b6009805461127c9061357d565b80601f01602080910402602001604051908101604052809291908181526020018280546112a89061357d565b80156112f55780601f106112ca576101008083540402835291602001916112f5565b820191906000526020600020905b8154815290600101906020018083116112d857829003601f168201915b505050505081565b6000600161130b6008611a60565b6113159190613397565b905090565b6000600560008473ffffffffffffffffffffffffffffffffffffffff1673ffffffffffffffffffffffffffffffffffffffff16815260200190815260200160002060008373ffffffffffffffffffffffffffffffffffffffff1673ffffffffffffffffffffffffffffffffffffffff16815260200190815260200160002060009054906101000a900460ff16905092915050565b6113b661165a565b73ffffffffffffffffffffffffffffffffffffffff166113d4611035565b73ffffffffffffffffffffffffffffffffffffffff161461142a576040517f08c379a00000000000000000000000000000000000000000000000000000000081526004016114219061319d565b60405180910390fd5b600073ffffffffffffffffffffffffffffffffffffffff168173ffffffffffffffffffffffffffffffffffffffff16141561149a576040517f08c379a00000000000000000000000000000000000000000000000000000000081526004016114919061303d565b60405180910390fd5b6114a381611dc4565b50565b6109c481565b6040518060400160405280600481526020017f535045430000000000000000000000000000000000000000000000000000000081525081565b61157f8383836040516024016114fd93929190612f93565b6040516020818303038152906040527f2ced7cef000000000000000000000000000000000000000000000000000000007bffffffffffffffffffffffffffffffffffffffffffffffffffffffff19166020820180517bffffffffffffffffffffffffffffffffffffffffffffffffffffffff8381831617835250505050612053565b505050565b60007f01ffc9a7000000000000000000000000000000000000000000000000000000007bffffffffffffffffffffffffffffffffffffffffffffffffffffffff1916827bffffffffffffffffffffffffffffffffffffffffffffffffffffffff1916149050919050565b60008073ffffffffffffffffffffffffffffffffffffffff166002600084815260200190815260200160002060009054906101000a900473ffffffffffffffffffffffffffffffffffffffff1673ffffffffffffffffffffffffffffffffffffffff1614159050919050565b600033905090565b816004600083815260200190815260200160002060006101000a81548173ffffffffffffffffffffffffffffffffffffffff021916908373ffffffffffffffffffffffffffffffffffffffff160217905550808273ffffffffffffffffffffffffffffffffffffffff166116d583610d87565b73ffffffffffffffffffffffffffffffffffffffff167f8c5be1e5ebec7d5bd14f71427d1e84f3dd0314c0f7b2291e5b200ac8c7c3b92560405160405180910390a45050565b6000611726826115ee565b611765576040517f08c379a000000000000000000000000000000000000000000000000000000000815260040161175c906130dd565b60405180910390fd5b600061177083610d87565b90508073ffffffffffffffffffffffffffffffffffffffff168473ffffffffffffffffffffffffffffffffffffffff1614806117df57508373ffffffffffffffffffffffffffffffffffffffff166117c7846107b3565b73ffffffffffffffffffffffffffffffffffffffff16145b806117f057506117ef818561131a565b5b91505092915050565b8273ffffffffffffffffffffffffffffffffffffffff1661181982610d87565b73ffffffffffffffffffffffffffffffffffffffff161461186f576040517f08c379a00000000000000000000000000000000000000000000000000000000081526004016118669061305d565b60405180910390fd5b600073ffffffffffffffffffffffffffffffffffffffff168273ffffffffffffffffffffffffffffffffffffffff1614156118df576040517f08c379a00000000000000000000000000000000000000000000000000000000081526004016118d69061309d565b60405180910390fd5b6118ea83838361207c565b6118f5600082611662565b6001600360008573ffffffffffffffffffffffffffffffffffffffff1673ffffffffffffffffffffffffffffffffffffffff16815260200190815260200160002060008282546119459190613478565b925050819055506001600360008473ffffffffffffffffffffffffffffffffffffffff1673ffffffffffffffffffffffffffffffffffffffff168152602001908152602001600020600082825461199c9190613397565b92505081905550816002600083815260200190815260200160002060006101000a81548173ffffffffffffffffffffffffffffffffffffffff021916908373ffffffffffffffffffffffffffffffffffffffff160217905550808273ffffffffffffffffffffffffffffffffffffffff168473ffffffffffffffffffffffffffffffffffffffff167fddf252ad1be2c89b69c2b068fc378daa952ba7f163c4a11628f55a4df523b3ef60405160405180910390a4611a5b838383612081565b505050565b600081600001549050919050565b60606000825190506000811415611a975760405180602001604052806000815250915050611c27565b60006003600283611aa89190613397565b611ab291906133ed565b6004611abe919061341e565b90506000602082611acf9190613397565b67ffffffffffffffff811115611b0e577f4e487b7100000000000000000000000000000000000000000000000000000000600052604160045260246000fd5b6040519080825280601f01601f191660200182016040528015611b405781602001600182028036833780820191505090505b5090506000604051806060016040528060408152602001613d5b604091399050600181016020830160005b86811015611be45760038101905062ffffff818a015116603f8160121c168401518060081b905060ff603f83600c1c1686015116810190508060081b905060ff603f8360061c1686015116810190508060081b905060ff603f831686015116810190508060e01b90508084526004840193505050611b6b565b506003860660018114611bfe5760028114611c0e57611c19565b613d3d60f01b6002830352611c19565b603d60f81b60018303525b508484525050819450505050505b919050565b611cc281604051602401611c409190612f71565b6040516020818303038152906040527f41304fac000000000000000000000000000000000000000000000000000000007bffffffffffffffffffffffffffffffffffffffffffffffffffffffff19166020820180517bffffffffffffffffffffffffffffffffffffffffffffffffffffffff8381831617835250505050612053565b50565b611cdf828260405180602001604052806000815250612086565b5050565b80600b60008481526020019081526020016000209080519060200190611d0a92919061248f565b505050565b6001816000016000828254019250508190555050565b611dbf838383604051602401611d3d93929190612fdf565b6040516020818303038152906040527fe3849f79000000000000000000000000000000000000000000000000000000007bffffffffffffffffffffffffffffffffffffffffffffffffffffffff19166020820180517bffffffffffffffffffffffffffffffffffffffffffffffffffffffff8381831617835250505050612053565b505050565b6000600760009054906101000a900473ffffffffffffffffffffffffffffffffffffffff16905081600760006101000a81548173ffffffffffffffffffffffffffffffffffffffff021916908373ffffffffffffffffffffffffffffffffffffffff1602179055508173ffffffffffffffffffffffffffffffffffffffff168173ffffffffffffffffffffffffffffffffffffffff167f8be0079c531659141344cd1fd0a4f28419497f9722a3daafe3b4186f6b6457e060405160405180910390a35050565b8173ffffffffffffffffffffffffffffffffffffffff168373ffffffffffffffffffffffffffffffffffffffff161415611ef9576040517f08c379a0000000000000000000000000000000000000000000000000000000008152600401611ef0906130bd565b60405180910390fd5b80600560008573ffffffffffffffffffffffffffffffffffffffff1673ffffffffffffffffffffffffffffffffffffffff16815260200190815260200160002060008473ffffffffffffffffffffffffffffffffffffffff1673ffffffffffffffffffffffffffffffffffffffff16815260200190815260200160002060006101000a81548160ff0219169083151502179055508173ffffffffffffffffffffffffffffffffffffffff168373ffffffffffffffffffffffffffffffffffffffff167f17307eab39ab6107e8899845ad3d59bd9653f200f220920489ca2b5937696c3183604051611fea9190612f56565b60405180910390a3505050565b6120028484846117f9565b61200e848484846120e1565b61204d576040517f08c379a00000000000000000000000000000000000000000000000000000000081526004016120449061301d565b60405180910390fd5b50505050565b60008151905060006a636f6e736f6c652e6c6f679050602083016000808483855afa5050505050565b505050565b505050565b6120908383612278565b61209d60008484846120e1565b6120dc576040517f08c379a00000000000000000000000000000000000000000000000000000000081526004016120d39061301d565b60405180910390fd5b505050565b60006121028473ffffffffffffffffffffffffffffffffffffffff16612452565b1561226b578373ffffffffffffffffffffffffffffffffffffffff1663150b7a0261212b61165a565b8786866040518563ffffffff1660e01b815260040161214d9493929190612ebf565b602060405180830381600087803b15801561216757600080fd5b505af192505050801561219857506040513d601f19601f82011682018060405250810190612195919061283b565b60015b61221b573d80600081146121c8576040519150601f19603f3d011682016040523d82523d6000602084013e6121cd565b606091505b50600081511415612213576040517f08c379a000000000000000000000000000000000000000000000000000000000815260040161220a9061301d565b60405180910390fd5b805181602001fd5b63150b7a0260e01b7bffffffffffffffffffffffffffffffffffffffffffffffffffffffff1916817bffffffffffffffffffffffffffffffffffffffffffffffffffffffff191614915050612270565b600190505b949350505050565b600073ffffffffffffffffffffffffffffffffffffffff168273ffffffffffffffffffffffffffffffffffffffff1614156122e8576040517f08c379a00000000000000000000000000000000000000000000000000000000081526004016122df9061315d565b60405180910390fd5b6122f1816115ee565b15612331576040517f08c379a00000000000000000000000000000000000000000000000000000000081526004016123289061307d565b60405180910390fd5b61233d6000838361207c565b6001600360008473ffffffffffffffffffffffffffffffffffffffff1673ffffffffffffffffffffffffffffffffffffffff168152602001908152602001600020600082825461238d9190613397565b92505081905550816002600083815260200190815260200160002060006101000a81548173ffffffffffffffffffffffffffffffffffffffff021916908373ffffffffffffffffffffffffffffffffffffffff160217905550808273ffffffffffffffffffffffffffffffffffffffff16600073ffffffffffffffffffffffffffffffffffffffff167fddf252ad1be2c89b69c2b068fc378daa952ba7f163c4a11628f55a4df523b3ef60405160405180910390a461244e60008383612081565b5050565b6000808273ffffffffffffffffffffffffffffffffffffffff163b119050919050565b604051806040016040528060008152602001606081525090565b82805461249b9061357d565b90600052602060002090601f0160209004810192826124bd5760008555612504565b82601f106124d657805160ff1916838001178555612504565b82800160010185558215612504579182015b828111156125035782518255916020019190600101906124e8565b5b5090506125119190612515565b5090565b5b8082111561252e576000816000905550600101612516565b5090565b600061254561254084613293565b61326e565b90508281526020810184848401111561255d57600080fd5b61256884828561353b565b509392505050565b600061258361257e846132c4565b61326e565b90508281526020810184848401111561259b57600080fd5b6125a684828561353b565b509392505050565b6000813590506125bd81613cd9565b92915050565b6000813590506125d281613cf0565b92915050565b6000813590506125e781613d07565b92915050565b6000815190506125fc81613d07565b92915050565b600082601f83011261261357600080fd5b8135612623848260208601612532565b91505092915050565b600082601f83011261263d57600080fd5b813561264d848260208601612570565b91505092915050565b60008135905061266581613d1e565b92915050565b60006020828403121561267d57600080fd5b600061268b848285016125ae565b91505092915050565b600080604083850312156126a757600080fd5b60006126b5858286016125ae565b92505060206126c6858286016125ae565b9150509250929050565b6000806000606084860312156126e557600080fd5b60006126f3868287016125ae565b9350506020612704868287016125ae565b925050604061271586828701612656565b9150509250925092565b6000806000806080858703121561273557600080fd5b6000612743878288016125ae565b9450506020612754878288016125ae565b935050604061276587828801612656565b925050606085013567ffffffffffffffff81111561278257600080fd5b61278e87828801612602565b91505092959194509250565b600080604083850312156127ad57600080fd5b60006127bb858286016125ae565b92505060206127cc858286016125c3565b9150509250929050565b600080604083850312156127e957600080fd5b60006127f7858286016125ae565b925050602061280885828601612656565b9150509250929050565b60006020828403121561282457600080fd5b6000612832848285016125d8565b91505092915050565b60006020828403121561284d57600080fd5b600061285b848285016125ed565b91505092915050565b60006020828403121561287657600080fd5b600082013567ffffffffffffffff81111561289057600080fd5b61289c8482850161262c565b91505092915050565b6000602082840312156128b757600080fd5b60006128c584828501612656565b91505092915050565b60006128da8383612daf565b905092915050565b6128eb816134ac565b82525050565b60006128fc8261331a565b6129068185613348565b935083602082028501612918856132f5565b8060005b85811015612954578484038952815161293585826128ce565b94506129408361333b565b925060208a0199505060018101905061291c565b50829750879550505050505092915050565b61296f816134be565b82525050565b600061298082613325565b61298a8185613359565b935061299a81856020860161354a565b6129a3816136e5565b840191505092915050565b60006129b982613330565b6129c3818561336a565b93506129d381856020860161354a565b6129dc816136e5565b840191505092915050565b60006129f282613330565b6129fc818561337b565b9350612a0c81856020860161354a565b612a15816136e5565b840191505092915050565b6000612a2b82613330565b612a35818561338c565b9350612a4581856020860161354a565b80840191505092915050565b60008154612a5e8161357d565b612a68818661338c565b94506001821660008114612a835760018114612a9457612ac7565b60ff19831686528186019350612ac7565b612a9d85613305565b60005b83811015612abf57815481890152600182019150602081019050612aa0565b838801955050505b50505092915050565b6000612add60328361337b565b9150612ae8826136f6565b604082019050919050565b6000612b0060268361337b565b9150612b0b82613745565b604082019050919050565b6000612b2360258361337b565b9150612b2e82613794565b604082019050919050565b6000612b46601c8361337b565b9150612b51826137e3565b602082019050919050565b6000612b6960188361338c565b9150612b748261380c565b601882019050919050565b6000612b8c60248361337b565b9150612b9782613835565b604082019050919050565b6000612baf60198361337b565b9150612bba82613884565b602082019050919050565b6000612bd2602c8361337b565b9150612bdd826138ad565b604082019050919050565b6000612bf5600d8361338c565b9150612c00826138fc565b600d82019050919050565b6000612c1860388361337b565b9150612c2382613925565b604082019050919050565b6000612c3b602a8361337b565b9150612c4682613974565b604082019050919050565b6000612c5e60298361337b565b9150612c69826139c3565b604082019050919050565b6000612c8160028361338c565b9150612c8c82613a12565b600282019050919050565b6000612ca460208361337b565b9150612caf82613a3b565b602082019050919050565b6000612cc7602c8361337b565b9150612cd282613a64565b604082019050919050565b6000612cea60208361337b565b9150612cf582613ab3565b602082019050919050565b6000612d0d60218361337b565b9150612d1882613adc565b604082019050919050565b6000612d30601d8361338c565b9150612d3b82613b2b565b601d82019050919050565b6000612d5360318361337b565b9150612d5e82613b54565b604082019050919050565b6000612d76601b8361337b565b9150612d8182613ba3565b602082019050919050565b6000612d9960d08361338c565b9150612da482613bcc565b60d082019050919050565b6000604083016000830151612dc76000860182612dfb565b5060208301518482036020860152612ddf82826129ae565b9150508091505092915050565b612df5816134f6565b82525050565b612e0481613524565b82525050565b612e1381613524565b82525050565b612e228161352e565b82525050565b6000612e348284612a51565b9150612e3f82612b5c565b9150612e4a82612be8565b915081905092915050565b6000612e6082612d23565b9150612e6c8284612a20565b915081905092915050565b6000612e8282612d8c565b9150612e8e8284612a20565b9150612e9982612c74565b915081905092915050565b6000602082019050612eb960008301846128e2565b92915050565b6000608082019050612ed460008301876128e2565b612ee160208301866128e2565b612eee6040830185612e0a565b8181036060830152612f008184612975565b905095945050505050565b6000604082019050612f2060008301856128e2565b612f2d6020830184612e0a565b9392505050565b60006020820190508181036000830152612f4e81846128f1565b905092915050565b6000602082019050612f6b6000830184612966565b92915050565b60006020820190508181036000830152612f8b81846129e7565b905092915050565b60006060820190508181036000830152612fad81866129e7565b90508181036020830152612fc181856129e7565b90508181036040830152612fd581846129e7565b9050949350505050565b60006060820190508181036000830152612ff981866129e7565b90506130086020830185612e0a565b61301560408301846128e2565b949350505050565b6000602082019050818103600083015261303681612ad0565b9050919050565b6000602082019050818103600083015261305681612af3565b9050919050565b6000602082019050818103600083015261307681612b16565b9050919050565b6000602082019050818103600083015261309681612b39565b9050919050565b600060208201905081810360008301526130b681612b7f565b9050919050565b600060208201905081810360008301526130d681612ba2565b9050919050565b600060208201905081810360008301526130f681612bc5565b9050919050565b6000602082019050818103600083015261311681612c0b565b9050919050565b6000602082019050818103600083015261313681612c2e565b9050919050565b6000602082019050818103600083015261315681612c51565b9050919050565b6000602082019050818103600083015261317681612c97565b9050919050565b6000602082019050818103600083015261319681612cba565b9050919050565b600060208201905081810360008301526131b681612cdd565b9050919050565b600060208201905081810360008301526131d681612d00565b9050919050565b600060208201905081810360008301526131f681612d46565b9050919050565b6000602082019050818103600083015261321681612d69565b9050919050565b60006020820190506132326000830184612dec565b92915050565b600060208201905061324d6000830184612e0a565b92915050565b60006020820190506132686000830184612e19565b92915050565b6000613278613289565b905061328482826135af565b919050565b6000604051905090565b600067ffffffffffffffff8211156132ae576132ad6136b6565b5b6132b7826136e5565b9050602081019050919050565b600067ffffffffffffffff8211156132df576132de6136b6565b5b6132e8826136e5565b9050602081019050919050565b6000819050602082019050919050565b60008190508160005260206000209050919050565b600081519050919050565b600081519050919050565b600081519050919050565b6000602082019050919050565b600082825260208201905092915050565b600082825260208201905092915050565b600082825260208201905092915050565b600082825260208201905092915050565b600081905092915050565b60006133a282613524565b91506133ad83613524565b9250827fffffffffffffffffffffffffffffffffffffffffffffffffffffffffffffffff038211156133e2576133e1613629565b5b828201905092915050565b60006133f882613524565b915061340383613524565b92508261341357613412613658565b5b828204905092915050565b600061342982613524565b915061343483613524565b9250817fffffffffffffffffffffffffffffffffffffffffffffffffffffffffffffffff048311821515161561346d5761346c613629565b5b828202905092915050565b600061348382613524565b915061348e83613524565b9250828210156134a1576134a0613629565b5b828203905092915050565b60006134b782613504565b9050919050565b60008115159050919050565b60007fffffffff0000000000000000000000000000000000000000000000000000000082169050919050565b600061ffff82169050919050565b600073ffffffffffffffffffffffffffffffffffffffff82169050919050565b6000819050919050565b600060ff82169050919050565b82818337600083830152505050565b60005b8381101561356857808201518184015260208101905061354d565b83811115613577576000848401525b50505050565b6000600282049050600182168061359557607f821691505b602082108114156135a9576135a8613687565b5b50919050565b6135b8826136e5565b810181811067ffffffffffffffff821117156135d7576135d66136b6565b5b80604052505050565b60006135eb82613524565b91507fffffffffffffffffffffffffffffffffffffffffffffffffffffffffffffffff82141561361e5761361d613629565b5b600182019050919050565b7f4e487b7100000000000000000000000000000000000000000000000000000000600052601160045260246000fd5b7f4e487b7100000000000000000000000000000000000000000000000000000000600052601260045260246000fd5b7f4e487b7100000000000000000000000000000000000000000000000000000000600052602260045260246000fd5b7f4e487b7100000000000000000000000000000000000000000000000000000000600052604160045260246000fd5b6000601f19601f8301169050919050565b7f4552433732313a207472616e7366657220746f206e6f6e20455243373231526560008201527f63656976657220696d706c656d656e7465720000000000000000000000000000602082015250565b7f4f776e61626c653a206e6577206f776e657220697320746865207a65726f206160008201527f6464726573730000000000000000000000000000000000000000000000000000602082015250565b7f4552433732313a207472616e736665722066726f6d20696e636f72726563742060008201527f6f776e6572000000000000000000000000000000000000000000000000000000602082015250565b7f4552433732313a20746f6b656e20616c7265616479206d696e74656400000000600082015250565b7f537065637472756d582044414f204d656d626572736869700000000000000000600082015250565b7f4552433732313a207472616e7366657220746f20746865207a65726f2061646460008201527f7265737300000000000000000000000000000000000000000000000000000000602082015250565b7f4552433732313a20617070726f766520746f2063616c6c657200000000000000600082015250565b7f4552433732313a206f70657261746f7220717565727920666f72206e6f6e657860008201527f697374656e7420746f6b656e0000000000000000000000000000000000000000602082015250565b7f3c2f746578743e3c2f7376673e00000000000000000000000000000000000000600082015250565b7f4552433732313a20617070726f76652063616c6c6572206973206e6f74206f7760008201527f6e6572206e6f7220617070726f76656420666f7220616c6c0000000000000000602082015250565b7f4552433732313a2062616c616e636520717565727920666f7220746865207a6560008201527f726f206164647265737300000000000000000000000000000000000000000000602082015250565b7f4552433732313a206f776e657220717565727920666f72206e6f6e657869737460008201527f656e7420746f6b656e0000000000000000000000000000000000000000000000602082015250565b7f227d000000000000000000000000000000000000000000000000000000000000600082015250565b7f4552433732313a206d696e7420746f20746865207a65726f2061646472657373600082015250565b7f4552433732313a20617070726f76656420717565727920666f72206e6f6e657860008201527f697374656e7420746f6b656e0000000000000000000000000000000000000000602082015250565b7f4f776e61626c653a2063616c6c6572206973206e6f7420746865206f776e6572600082015250565b7f4552433732313a20617070726f76616c20746f2063757272656e74206f776e6560008201527f7200000000000000000000000000000000000000000000000000000000000000602082015250565b7f646174613a6170706c69636174696f6e2f6a736f6e3b6261736536342c000000600082015250565b7f4552433732313a207472616e736665722063616c6c6572206973206e6f74206f60008201527f776e6572206e6f7220617070726f766564000000000000000000000000000000602082015250565b7f4e6f20617661696c61626c6520746f6b656e7320746f206d696e740000000000600082015250565b7f7b226e616d65223a2022537065637472756d582044414f204d656d706572736860008201527f697050617373222c20226465736372697074696f6e223a2022416c6c6f77732060208201527f61636365737320746f20537065637472756d582044414f20696e636c7564696e60408201527f6720746865206f70706f7274756e69747920746f2074616b652070617274206960608201527f6e207265766f6c7574696f6e697a696e67206d656e746f72736869702077697460808201527f68696e20776562332e222c2022696d616765223a2022646174613a696d61676560a08201527f2f7376672b786d6c3b6261736536342c0000000000000000000000000000000060c082015250565b613ce2816134ac565b8114613ced57600080fd5b50565b613cf9816134be565b8114613d0457600080fd5b50565b613d10816134ca565b8114613d1b57600080fd5b50565b613d2781613524565b8114613d3257600080fd5b5056fe416e204e465420772f20494420257320686173206265656e206d696e74656420746f2025734142434445464748494a4b4c4d4e4f505152535455565758595a6162636465666768696a6b6c6d6e6f707172737475767778797a303132333435363738392b2fa2646970667358221220b770f1898557168cc0a54ac97edd438996a5a942f1149f5eb51c328a312e88d364736f6c634300080400333c73766720786d6c6e733d27687474703a2f2f7777772e77332e6f72672f323030302f73766727207072657365727665417370656374526174696f3d27784d696e594d696e206d656574272076696577426f783d273020302033353020333530273e3c7374796c653e2e62617365207b2066696c6c3a2077686974653b20666f6e742d66616d696c793a2073657269663b20666f6e742d73697a653a20323470783b207d3c2f7374796c653e3c726563742077696474683d273130302527206865696768743d2731303025272066696c6c3d2727202f3e3c7465787420783d273530252720793d273530252720636c6173733d27626173652720646f6d696e616e742d626173656c696e653d276d6964646c652720746578742d616e63686f723d276d6964646c65273e",
    "linkReferences": {},
    "deployedLinkReferences": {}
}